{
	"loto.sol": {
		"Lottery": {
			"abi": [
				{
					"inputs": [
						{
							"internalType": "uint256",
							"name": "_minFee",
							"type": "uint256"
						}
					],
					"stateMutability": "nonpayable",
					"type": "constructor"
				},
				{
					"inputs": [],
					"name": "getBalance",
					"outputs": [
						{
							"internalType": "uint256",
							"name": "",
							"type": "uint256"
						}
					],
					"stateMutability": "view",
					"type": "function"
				},
				{
					"inputs": [],
					"name": "getRandomNumber",
					"outputs": [
						{
							"internalType": "uint256",
							"name": "",
							"type": "uint256"
						}
					],
					"stateMutability": "view",
					"type": "function"
				},
				{
					"inputs": [],
					"name": "minFee",
					"outputs": [
						{
							"internalType": "uint256",
							"name": "",
							"type": "uint256"
						}
					],
					"stateMutability": "view",
					"type": "function"
				},
				{
					"inputs": [],
					"name": "owner",
					"outputs": [
						{
							"internalType": "address",
							"name": "",
							"type": "address"
						}
					],
					"stateMutability": "view",
					"type": "function"
				},
				{
					"inputs": [],
					"name": "pickWinner",
					"outputs": [],
					"stateMutability": "nonpayable",
					"type": "function"
				},
				{
					"inputs": [],
					"name": "play",
					"outputs": [],
					"stateMutability": "payable",
					"type": "function"
				},
				{
					"inputs": [
						{
							"internalType": "address",
							"name": "",
							"type": "address"
						}
					],
					"name": "playerBalance",
					"outputs": [
						{
							"internalType": "uint256",
							"name": "",
							"type": "uint256"
						}
					],
					"stateMutability": "view",
					"type": "function"
				},
				{
					"inputs": [
						{
							"internalType": "uint256",
							"name": "",
							"type": "uint256"
						}
					],
					"name": "players",
					"outputs": [
						{
							"internalType": "address",
							"name": "",
							"type": "address"
						}
					],
					"stateMutability": "view",
					"type": "function"
				}
			],
			"devdoc": {
				"kind": "dev",
				"methods": {},
				"version": 1
			},
			"evm": {
				"assembly": "    /* \"loto.sol\":70:1174  contract Lottery{... */\n  mstore(0x40, 0x80)\n    /* \"loto.sol\":210:283  constructor(uint _minFee){... */\n  callvalue\n  dup1\n  iszero\n  tag_1\n  jumpi\n  0x00\n  dup1\n  revert\ntag_1:\n  pop\n  mload(0x40)\n  sub(codesize, bytecodeSize)\n  dup1\n  bytecodeSize\n  dup4\n  codecopy\n  dup2\n  dup2\n  add\n  0x40\n  mstore\n  dup2\n  add\n  swap1\n  tag_2\n  swap2\n  swap1\n  tag_3\n  jump\t// in\ntag_2:\n    /* \"loto.sol\":249:256  _minFee */\n  dup1\n    /* \"loto.sol\":240:246  minFee */\n  0x00\n    /* \"loto.sol\":240:256  minFee = _minFee */\n  dup2\n  swap1\n  sstore\n  pop\n    /* \"loto.sol\":269:279  msg.sender */\n  caller\n    /* \"loto.sol\":261:266  owner */\n  0x01\n  0x00\n    /* \"loto.sol\":261:279  owner = msg.sender */\n  0x0100\n  exp\n  dup2\n  sload\n  dup2\n  0xffffffffffffffffffffffffffffffffffffffff\n  mul\n  not\n  and\n  swap1\n  dup4\n  0xffffffffffffffffffffffffffffffffffffffff\n  and\n  mul\n  or\n  swap1\n  sstore\n  pop\n    /* \"loto.sol\":210:283  constructor(uint _minFee){... */\n  pop\n    /* \"loto.sol\":70:1174  contract Lottery{... */\n  jump(tag_6)\n    /* \"#utility.yul\":88:205   */\ntag_8:\n    /* \"#utility.yul\":197:198   */\n  0x00\n    /* \"#utility.yul\":194:195   */\n  dup1\n    /* \"#utility.yul\":187:199   */\n  revert\n    /* \"#utility.yul\":334:411   */\ntag_10:\n    /* \"#utility.yul\":371:378   */\n  0x00\n    /* \"#utility.yul\":400:405   */\n  dup2\n    /* \"#utility.yul\":389:405   */\n  swap1\n  pop\n    /* \"#utility.yul\":334:411   */\n  swap2\n  swap1\n  pop\n  jump\t// out\n    /* \"#utility.yul\":417:539   */\ntag_11:\n    /* \"#utility.yul\":490:514   */\n  tag_19\n    /* \"#utility.yul\":508:513   */\n  dup2\n    /* \"#utility.yul\":490:514   */\n  tag_10\n  jump\t// in\ntag_19:\n    /* \"#utility.yul\":483:488   */\n  dup2\n    /* \"#utility.yul\":480:515   */\n  eq\n    /* \"#utility.yul\":470:533   */\n  tag_20\n  jumpi\n    /* \"#utility.yul\":529:530   */\n  0x00\n    /* \"#utility.yul\":526:527   */\n  dup1\n    /* \"#utility.yul\":519:531   */\n  revert\n    /* \"#utility.yul\":470:533   */\ntag_20:\n    /* \"#utility.yul\":417:539   */\n  pop\n  jump\t// out\n    /* \"#utility.yul\":545:688   */\ntag_12:\n    /* \"#utility.yul\":602:607   */\n  0x00\n    /* \"#utility.yul\":633:639   */\n  dup2\n    /* \"#utility.yul\":627:640   */\n  mload\n    /* \"#utility.yul\":618:640   */\n  swap1\n  pop\n    /* \"#utility.yul\":649:682   */\n  tag_22\n    /* \"#utility.yul\":676:681   */\n  dup2\n    /* \"#utility.yul\":649:682   */\n  tag_11\n  jump\t// in\ntag_22:\n    /* \"#utility.yul\":545:688   */\n  swap3\n  swap2\n  pop\n  pop\n  jump\t// out\n    /* \"#utility.yul\":694:1045   */\ntag_3:\n    /* \"#utility.yul\":764:770   */\n  0x00\n    /* \"#utility.yul\":813:815   */\n  0x20\n    /* \"#utility.yul\":801:810   */\n  dup3\n    /* \"#utility.yul\":792:799   */\n  dup5\n    /* \"#utility.yul\":788:811   */\n  sub\n    /* \"#utility.yul\":784:816   */\n  slt\n    /* \"#utility.yul\":781:900   */\n  iszero\n  tag_24\n  jumpi\n    /* \"#utility.yul\":819:898   */\n  tag_25\n  tag_8\n  jump\t// in\ntag_25:\n    /* \"#utility.yul\":781:900   */\ntag_24:\n    /* \"#utility.yul\":939:940   */\n  0x00\n    /* \"#utility.yul\":964:1028   */\n  tag_26\n    /* \"#utility.yul\":1020:1027   */\n  dup5\n    /* \"#utility.yul\":1011:1017   */\n  dup3\n    /* \"#utility.yul\":1000:1009   */\n  dup6\n    /* \"#utility.yul\":996:1018   */\n  add\n    /* \"#utility.yul\":964:1028   */\n  tag_12\n  jump\t// in\ntag_26:\n    /* \"#utility.yul\":954:1028   */\n  swap2\n  pop\n    /* \"#utility.yul\":910:1038   */\n  pop\n    /* \"#utility.yul\":694:1045   */\n  swap3\n  swap2\n  pop\n  pop\n  jump\t// out\n    /* \"loto.sol\":70:1174  contract Lottery{... */\ntag_6:\n  dataSize(sub_0)\n  dup1\n  dataOffset(sub_0)\n  0x00\n  codecopy\n  0x00\n  return\nstop\n\nsub_0: assembly {\n        /* \"loto.sol\":70:1174  contract Lottery{... */\n      mstore(0x40, 0x80)\n      jumpi(tag_1, lt(calldatasize, 0x04))\n      shr(0xe0, calldataload(0x00))\n      dup1\n      0x8da5cb5b\n      gt\n      tag_10\n      jumpi\n      dup1\n      0x8da5cb5b\n      eq\n      tag_6\n      jumpi\n      dup1\n      0x93e84cd9\n      eq\n      tag_7\n      jumpi\n      dup1\n      0xdbdff2c1\n      eq\n      tag_8\n      jumpi\n      dup1\n      0xf71d96cb\n      eq\n      tag_9\n      jumpi\n      jump(tag_1)\n    tag_10:\n      dup1\n      0x12065fe0\n      eq\n      tag_2\n      jumpi\n      dup1\n      0x24ec7590\n      eq\n      tag_3\n      jumpi\n      dup1\n      0x4e33f83b\n      eq\n      tag_4\n      jumpi\n      dup1\n      0x5d495aea\n      eq\n      tag_5\n      jumpi\n    tag_1:\n      0x00\n      dup1\n      revert\n        /* \"loto.sol\":470:553  function getBalance() public view returns(uint){... */\n    tag_2:\n      callvalue\n      dup1\n      iszero\n      tag_11\n      jumpi\n      0x00\n      dup1\n      revert\n    tag_11:\n      pop\n      tag_12\n      tag_13\n      jump\t// in\n    tag_12:\n      mload(0x40)\n      tag_14\n      swap2\n      swap1\n      tag_15\n      jump\t// in\n    tag_14:\n      mload(0x40)\n      dup1\n      swap2\n      sub\n      swap1\n      return\n        /* \"loto.sol\":89:107  uint public minFee */\n    tag_3:\n      callvalue\n      dup1\n      iszero\n      tag_16\n      jumpi\n      0x00\n      dup1\n      revert\n    tag_16:\n      pop\n      tag_17\n      tag_18\n      jump\t// in\n    tag_17:\n      mload(0x40)\n      tag_19\n      swap2\n      swap1\n      tag_15\n      jump\t// in\n    tag_19:\n      mload(0x40)\n      dup1\n      swap2\n      sub\n      swap1\n      return\n        /* \"loto.sol\":160:205  mapping (address=> uint) public playerBalance */\n    tag_4:\n      callvalue\n      dup1\n      iszero\n      tag_20\n      jumpi\n      0x00\n      dup1\n      revert\n    tag_20:\n      pop\n      tag_21\n      0x04\n      dup1\n      calldatasize\n      sub\n      dup2\n      add\n      swap1\n      tag_22\n      swap2\n      swap1\n      tag_23\n      jump\t// in\n    tag_22:\n      tag_24\n      jump\t// in\n    tag_21:\n      mload(0x40)\n      tag_25\n      swap2\n      swap1\n      tag_15\n      jump\t// in\n    tag_25:\n      mload(0x40)\n      dup1\n      swap2\n      sub\n      swap1\n      return\n        /* \"loto.sol\":683:1025  function pickWinner() public {... */\n    tag_5:\n      callvalue\n      dup1\n      iszero\n      tag_26\n      jumpi\n      0x00\n      dup1\n      revert\n    tag_26:\n      pop\n      tag_27\n      tag_28\n      jump\t// in\n    tag_27:\n      stop\n        /* \"loto.sol\":110:130  address public owner */\n    tag_6:\n      callvalue\n      dup1\n      iszero\n      tag_29\n      jumpi\n      0x00\n      dup1\n      revert\n    tag_29:\n      pop\n      tag_30\n      tag_31\n      jump\t// in\n    tag_30:\n      mload(0x40)\n      tag_32\n      swap2\n      swap1\n      tag_33\n      jump\t// in\n    tag_32:\n      mload(0x40)\n      dup1\n      swap2\n      sub\n      swap1\n      return\n        /* \"loto.sol\":287:466  function play() public payable minFeepay {... */\n    tag_7:\n      tag_34\n      tag_35\n      jump\t// in\n    tag_34:\n      stop\n        /* \"loto.sol\":555:679  function getRandomNumber() public view returns(uint){... */\n    tag_8:\n      callvalue\n      dup1\n      iszero\n      tag_36\n      jumpi\n      0x00\n      dup1\n      revert\n    tag_36:\n      pop\n      tag_37\n      tag_38\n      jump\t// in\n    tag_37:\n      mload(0x40)\n      tag_39\n      swap2\n      swap1\n      tag_15\n      jump\t// in\n    tag_39:\n      mload(0x40)\n      dup1\n      swap2\n      sub\n      swap1\n      return\n        /* \"loto.sol\":133:157  address[] public players */\n    tag_9:\n      callvalue\n      dup1\n      iszero\n      tag_40\n      jumpi\n      0x00\n      dup1\n      revert\n    tag_40:\n      pop\n      tag_41\n      0x04\n      dup1\n      calldatasize\n      sub\n      dup2\n      add\n      swap1\n      tag_42\n      swap2\n      swap1\n      tag_43\n      jump\t// in\n    tag_42:\n      tag_44\n      jump\t// in\n    tag_41:\n      mload(0x40)\n      tag_45\n      swap2\n      swap1\n      tag_33\n      jump\t// in\n    tag_45:\n      mload(0x40)\n      dup1\n      swap2\n      sub\n      swap1\n      return\n        /* \"loto.sol\":470:553  function getBalance() public view returns(uint){... */\n    tag_13:\n        /* \"loto.sol\":512:516  uint */\n      0x00\n        /* \"loto.sol\":528:549  address(this).balance */\n      selfbalance\n        /* \"loto.sol\":521:549  return address(this).balance */\n      swap1\n      pop\n        /* \"loto.sol\":470:553  function getBalance() public view returns(uint){... */\n      swap1\n      jump\t// out\n        /* \"loto.sol\":89:107  uint public minFee */\n    tag_18:\n      sload(0x00)\n      dup2\n      jump\t// out\n        /* \"loto.sol\":160:205  mapping (address=> uint) public playerBalance */\n    tag_24:\n      mstore(0x20, 0x03)\n      dup1\n      0x00\n      mstore\n      keccak256(0x00, 0x40)\n      0x00\n      swap2\n      pop\n      swap1\n      pop\n      sload\n      dup2\n      jump\t// out\n        /* \"loto.sol\":683:1025  function pickWinner() public {... */\n    tag_28:\n        /* \"loto.sol\":717:727  uint index */\n      0x00\n        /* \"loto.sol\":750:757  players */\n      0x02\n        /* \"loto.sol\":750:764  players.length */\n      dup1\n      sload\n      swap1\n      pop\n        /* \"loto.sol\":730:747  getRandomNumber() */\n      tag_48\n        /* \"loto.sol\":730:745  getRandomNumber */\n      tag_38\n        /* \"loto.sol\":730:747  getRandomNumber() */\n      jump\t// in\n    tag_48:\n        /* \"loto.sol\":730:764  getRandomNumber() % players.length */\n      tag_49\n      swap2\n      swap1\n      tag_50\n      jump\t// in\n    tag_49:\n        /* \"loto.sol\":717:764  uint index = getRandomNumber() % players.length */\n      swap1\n      pop\n        /* \"loto.sol\":773:779  uint i */\n      0x00\n        /* \"loto.sol\":769:1003  for(uint i=0; i<players.length;i++){... */\n    tag_51:\n        /* \"loto.sol\":785:792  players */\n      0x02\n        /* \"loto.sol\":785:799  players.length */\n      dup1\n      sload\n      swap1\n      pop\n        /* \"loto.sol\":783:784  i */\n      dup2\n        /* \"loto.sol\":783:799  i<players.length */\n      lt\n        /* \"loto.sol\":769:1003  for(uint i=0; i<players.length;i++){... */\n      iszero\n      tag_52\n      jumpi\n        /* \"loto.sol\":811:832  address playerAddress */\n      0x00\n        /* \"loto.sol\":835:842  players */\n      0x02\n        /* \"loto.sol\":843:844  i */\n      dup3\n        /* \"loto.sol\":835:845  players[i] */\n      dup2\n      sload\n      dup2\n      lt\n      tag_54\n      jumpi\n      tag_55\n      tag_56\n      jump\t// in\n    tag_55:\n    tag_54:\n      swap1\n      0x00\n      mstore\n      keccak256(0x00, 0x20)\n      add\n      0x00\n      swap1\n      sload\n      swap1\n      0x0100\n      exp\n      swap1\n      div\n      0xffffffffffffffffffffffffffffffffffffffff\n      and\n        /* \"loto.sol\":811:845  address playerAddress = players[i] */\n      swap1\n      pop\n        /* \"loto.sol\":853:865  bool success */\n      0x00\n        /* \"loto.sol\":878:891  playerAddress */\n      dup2\n        /* \"loto.sol\":870:897  payable(playerAddress).call */\n      0xffffffffffffffffffffffffffffffffffffffff\n      and\n        /* \"loto.sol\":904:917  playerBalance */\n      0x03\n        /* \"loto.sol\":904:932  playerBalance[playerAddress] */\n      0x00\n        /* \"loto.sol\":918:931  playerAddress */\n      dup5\n        /* \"loto.sol\":904:932  playerBalance[playerAddress] */\n      0xffffffffffffffffffffffffffffffffffffffff\n      and\n      0xffffffffffffffffffffffffffffffffffffffff\n      and\n      dup2\n      mstore\n      0x20\n      add\n      swap1\n      dup2\n      mstore\n      0x20\n      add\n      0x00\n      keccak256\n      sload\n        /* \"loto.sol\":870:937  payable(playerAddress).call{value:playerBalance[playerAddress]}(\"\") */\n      mload(0x40)\n      tag_58\n      swap1\n      tag_59\n      jump\t// in\n    tag_58:\n      0x00\n      mload(0x40)\n      dup1\n      dup4\n      sub\n      dup2\n      dup6\n      dup8\n      gas\n      call\n      swap3\n      pop\n      pop\n      pop\n      returndatasize\n      dup1\n      0x00\n      dup2\n      eq\n      tag_62\n      jumpi\n      mload(0x40)\n      swap2\n      pop\n      and(add(returndatasize, 0x3f), not(0x1f))\n      dup3\n      add\n      0x40\n      mstore\n      returndatasize\n      dup3\n      mstore\n      returndatasize\n      0x00\n      0x20\n      dup5\n      add\n      returndatacopy\n      jump(tag_61)\n    tag_62:\n      0x60\n      swap2\n      pop\n    tag_61:\n      pop\n        /* \"loto.sol\":852:937  (bool success,) = payable(playerAddress).call{value:playerBalance[playerAddress]}(\"\") */\n      pop\n      swap1\n      pop\n        /* \"loto.sol\":952:959  success */\n      dup1\n        /* \"loto.sol\":944:997  require(success,\"pago fallido, por favor reintentar\") */\n      tag_63\n      jumpi\n      mload(0x40)\n      0x08c379a000000000000000000000000000000000000000000000000000000000\n      dup2\n      mstore\n      0x04\n      add\n      tag_64\n      swap1\n      tag_65\n      jump\t// in\n    tag_64:\n      mload(0x40)\n      dup1\n      swap2\n      sub\n      swap1\n      revert\n    tag_63:\n        /* \"loto.sol\":804:1003  {... */\n      pop\n      pop\n        /* \"loto.sol\":800:803  i++ */\n      dup1\n      dup1\n      0x01\n      add\n      swap2\n      pop\n      pop\n        /* \"loto.sol\":769:1003  for(uint i=0; i<players.length;i++){... */\n      jump(tag_51)\n    tag_52:\n      pop\n        /* \"loto.sol\":1014:1021  players */\n      0x02\n      0x00\n        /* \"loto.sol\":1007:1021  delete players */\n      tag_66\n      swap2\n      swap1\n      tag_67\n      jump\t// in\n    tag_66:\n        /* \"loto.sol\":712:1025  {... */\n      pop\n        /* \"loto.sol\":683:1025  function pickWinner() public {... */\n      jump\t// out\n        /* \"loto.sol\":110:130  address public owner */\n    tag_31:\n      0x01\n      0x00\n      swap1\n      sload\n      swap1\n      0x0100\n      exp\n      swap1\n      div\n      0xffffffffffffffffffffffffffffffffffffffff\n      and\n      dup2\n      jump\t// out\n        /* \"loto.sol\":287:466  function play() public payable minFeepay {... */\n    tag_35:\n        /* \"loto.sol\":1136:1142  minFee */\n      sload(0x00)\n        /* \"loto.sol\":1123:1132  msg.value */\n      callvalue\n        /* \"loto.sol\":1123:1142  msg.value >= minFee */\n      lt\n      iszero\n        /* \"loto.sol\":1115:1165  require(msg.value >= minFee,\"Por favor pague mas\") */\n      tag_69\n      jumpi\n      mload(0x40)\n      0x08c379a000000000000000000000000000000000000000000000000000000000\n      dup2\n      mstore\n      0x04\n      add\n      tag_70\n      swap1\n      tag_71\n      jump\t// in\n    tag_70:\n      mload(0x40)\n      dup1\n      swap2\n      sub\n      swap1\n      revert\n    tag_69:\n        /* \"loto.sol\":354:360  minFee */\n      sload(0x00)\n        /* \"loto.sol\":341:350  msg.value */\n      callvalue\n        /* \"loto.sol\":341:360  msg.value >= minFee */\n      lt\n      iszero\n        /* \"loto.sol\":333:390  require(msg.value >= minFee, \"por favor pagar el minimo\") */\n      tag_73\n      jumpi\n      mload(0x40)\n      0x08c379a000000000000000000000000000000000000000000000000000000000\n      dup2\n      mstore\n      0x04\n      add\n      tag_74\n      swap1\n      tag_75\n      jump\t// in\n    tag_74:\n      mload(0x40)\n      dup1\n      swap2\n      sub\n      swap1\n      revert\n    tag_73:\n        /* \"loto.sol\":395:402  players */\n      0x02\n        /* \"loto.sol\":408:418  msg.sender */\n      caller\n        /* \"loto.sol\":395:419  players.push(msg.sender) */\n      swap1\n      dup1\n      0x01\n      dup2\n      sload\n      add\n      dup1\n      dup3\n      sstore\n      dup1\n      swap2\n      pop\n      pop\n      0x01\n      swap1\n      sub\n      swap1\n      0x00\n      mstore\n      keccak256(0x00, 0x20)\n      add\n      0x00\n      swap1\n      swap2\n      swap1\n      swap2\n      swap1\n      swap2\n      0x0100\n      exp\n      dup2\n      sload\n      dup2\n      0xffffffffffffffffffffffffffffffffffffffff\n      mul\n      not\n      and\n      swap1\n      dup4\n      0xffffffffffffffffffffffffffffffffffffffff\n      and\n      mul\n      or\n      swap1\n      sstore\n      pop\n        /* \"loto.sol\":453:462  msg.value */\n      callvalue\n        /* \"loto.sol\":424:437  playerBalance */\n      0x03\n        /* \"loto.sol\":424:449  playerBalance[msg.sender] */\n      0x00\n        /* \"loto.sol\":438:448  msg.sender */\n      caller\n        /* \"loto.sol\":424:449  playerBalance[msg.sender] */\n      0xffffffffffffffffffffffffffffffffffffffff\n      and\n      0xffffffffffffffffffffffffffffffffffffffff\n      and\n      dup2\n      mstore\n      0x20\n      add\n      swap1\n      dup2\n      mstore\n      0x20\n      add\n      0x00\n      keccak256\n      0x00\n        /* \"loto.sol\":424:462  playerBalance[msg.sender] += msg.value */\n      dup3\n      dup3\n      sload\n      tag_77\n      swap2\n      swap1\n      tag_78\n      jump\t// in\n    tag_77:\n      swap3\n      pop\n      pop\n      dup2\n      swap1\n      sstore\n      pop\n        /* \"loto.sol\":287:466  function play() public payable minFeepay {... */\n      jump\t// out\n        /* \"loto.sol\":555:679  function getRandomNumber() public view returns(uint){... */\n    tag_38:\n        /* \"loto.sol\":602:606  uint */\n      0x00\n        /* \"loto.sol\":651:656  owner */\n      0x01\n      0x00\n      swap1\n      sload\n      swap1\n      0x0100\n      exp\n      swap1\n      div\n      0xffffffffffffffffffffffffffffffffffffffff\n      and\n        /* \"loto.sol\":657:672  block.timestamp */\n      timestamp\n        /* \"loto.sol\":634:673  abi.encodePacked(owner,block.timestamp) */\n      add(0x20, mload(0x40))\n      tag_80\n      swap3\n      swap2\n      swap1\n      tag_81\n      jump\t// in\n    tag_80:\n      mload(0x40)\n      0x20\n      dup2\n      dup4\n      sub\n      sub\n      dup2\n      mstore\n      swap1\n      0x40\n      mstore\n        /* \"loto.sol\":624:674  keccak256(abi.encodePacked(owner,block.timestamp)) */\n      dup1\n      mload\n      swap1\n      0x20\n      add\n      keccak256\n        /* \"loto.sol\":619:675  uint(keccak256(abi.encodePacked(owner,block.timestamp))) */\n      0x00\n      shr\n        /* \"loto.sol\":612:675  return uint(keccak256(abi.encodePacked(owner,block.timestamp))) */\n      swap1\n      pop\n        /* \"loto.sol\":555:679  function getRandomNumber() public view returns(uint){... */\n      swap1\n      jump\t// out\n        /* \"loto.sol\":133:157  address[] public players */\n    tag_44:\n      0x02\n      dup2\n      dup2\n      sload\n      dup2\n      lt\n      tag_82\n      jumpi\n      0x00\n      dup1\n      revert\n    tag_82:\n      swap1\n      0x00\n      mstore\n      keccak256(0x00, 0x20)\n      add\n      0x00\n      swap2\n      pop\n      sload\n      swap1\n      0x0100\n      exp\n      swap1\n      div\n      0xffffffffffffffffffffffffffffffffffffffff\n      and\n      dup2\n      jump\t// out\n    tag_67:\n      pop\n      dup1\n      sload\n      0x00\n      dup3\n      sstore\n      swap1\n      0x00\n      mstore\n      keccak256(0x00, 0x20)\n      swap1\n      dup2\n      add\n      swap1\n      tag_85\n      swap2\n      swap1\n      tag_86\n      jump\t// in\n    tag_85:\n      pop\n      jump\t// out\n    tag_86:\n    tag_87:\n      dup1\n      dup3\n      gt\n      iszero\n      tag_88\n      jumpi\n      0x00\n      dup2\n      0x00\n      swap1\n      sstore\n      pop\n      0x01\n      add\n      jump(tag_87)\n    tag_88:\n      pop\n      swap1\n      jump\t// out\n        /* \"#utility.yul\":7:84   */\n    tag_89:\n        /* \"#utility.yul\":44:51   */\n      0x00\n        /* \"#utility.yul\":73:78   */\n      dup2\n        /* \"#utility.yul\":62:78   */\n      swap1\n      pop\n        /* \"#utility.yul\":7:84   */\n      swap2\n      swap1\n      pop\n      jump\t// out\n        /* \"#utility.yul\":90:208   */\n    tag_90:\n        /* \"#utility.yul\":177:201   */\n      tag_122\n        /* \"#utility.yul\":195:200   */\n      dup2\n        /* \"#utility.yul\":177:201   */\n      tag_89\n      jump\t// in\n    tag_122:\n        /* \"#utility.yul\":172:175   */\n      dup3\n        /* \"#utility.yul\":165:202   */\n      mstore\n        /* \"#utility.yul\":90:208   */\n      pop\n      pop\n      jump\t// out\n        /* \"#utility.yul\":214:436   */\n    tag_15:\n        /* \"#utility.yul\":307:311   */\n      0x00\n        /* \"#utility.yul\":345:347   */\n      0x20\n        /* \"#utility.yul\":334:343   */\n      dup3\n        /* \"#utility.yul\":330:348   */\n      add\n        /* \"#utility.yul\":322:348   */\n      swap1\n      pop\n        /* \"#utility.yul\":358:429   */\n      tag_124\n        /* \"#utility.yul\":426:427   */\n      0x00\n        /* \"#utility.yul\":415:424   */\n      dup4\n        /* \"#utility.yul\":411:428   */\n      add\n        /* \"#utility.yul\":402:408   */\n      dup5\n        /* \"#utility.yul\":358:429   */\n      tag_90\n      jump\t// in\n    tag_124:\n        /* \"#utility.yul\":214:436   */\n      swap3\n      swap2\n      pop\n      pop\n      jump\t// out\n        /* \"#utility.yul\":523:640   */\n    tag_92:\n        /* \"#utility.yul\":632:633   */\n      0x00\n        /* \"#utility.yul\":629:630   */\n      dup1\n        /* \"#utility.yul\":622:634   */\n      revert\n        /* \"#utility.yul\":769:895   */\n    tag_94:\n        /* \"#utility.yul\":806:813   */\n      0x00\n        /* \"#utility.yul\":846:888   */\n      0xffffffffffffffffffffffffffffffffffffffff\n        /* \"#utility.yul\":839:844   */\n      dup3\n        /* \"#utility.yul\":835:889   */\n      and\n        /* \"#utility.yul\":824:889   */\n      swap1\n      pop\n        /* \"#utility.yul\":769:895   */\n      swap2\n      swap1\n      pop\n      jump\t// out\n        /* \"#utility.yul\":901:997   */\n    tag_95:\n        /* \"#utility.yul\":938:945   */\n      0x00\n        /* \"#utility.yul\":967:991   */\n      tag_130\n        /* \"#utility.yul\":985:990   */\n      dup3\n        /* \"#utility.yul\":967:991   */\n      tag_94\n      jump\t// in\n    tag_130:\n        /* \"#utility.yul\":956:991   */\n      swap1\n      pop\n        /* \"#utility.yul\":901:997   */\n      swap2\n      swap1\n      pop\n      jump\t// out\n        /* \"#utility.yul\":1003:1125   */\n    tag_96:\n        /* \"#utility.yul\":1076:1100   */\n      tag_132\n        /* \"#utility.yul\":1094:1099   */\n      dup2\n        /* \"#utility.yul\":1076:1100   */\n      tag_95\n      jump\t// in\n    tag_132:\n        /* \"#utility.yul\":1069:1074   */\n      dup2\n        /* \"#utility.yul\":1066:1101   */\n      eq\n        /* \"#utility.yul\":1056:1119   */\n      tag_133\n      jumpi\n        /* \"#utility.yul\":1115:1116   */\n      0x00\n        /* \"#utility.yul\":1112:1113   */\n      dup1\n        /* \"#utility.yul\":1105:1117   */\n      revert\n        /* \"#utility.yul\":1056:1119   */\n    tag_133:\n        /* \"#utility.yul\":1003:1125   */\n      pop\n      jump\t// out\n        /* \"#utility.yul\":1131:1270   */\n    tag_97:\n        /* \"#utility.yul\":1177:1182   */\n      0x00\n        /* \"#utility.yul\":1215:1221   */\n      dup2\n        /* \"#utility.yul\":1202:1222   */\n      calldataload\n        /* \"#utility.yul\":1193:1222   */\n      swap1\n      pop\n        /* \"#utility.yul\":1231:1264   */\n      tag_135\n        /* \"#utility.yul\":1258:1263   */\n      dup2\n        /* \"#utility.yul\":1231:1264   */\n      tag_96\n      jump\t// in\n    tag_135:\n        /* \"#utility.yul\":1131:1270   */\n      swap3\n      swap2\n      pop\n      pop\n      jump\t// out\n        /* \"#utility.yul\":1276:1605   */\n    tag_23:\n        /* \"#utility.yul\":1335:1341   */\n      0x00\n        /* \"#utility.yul\":1384:1386   */\n      0x20\n        /* \"#utility.yul\":1372:1381   */\n      dup3\n        /* \"#utility.yul\":1363:1370   */\n      dup5\n        /* \"#utility.yul\":1359:1382   */\n      sub\n        /* \"#utility.yul\":1355:1387   */\n      slt\n        /* \"#utility.yul\":1352:1471   */\n      iszero\n      tag_137\n      jumpi\n        /* \"#utility.yul\":1390:1469   */\n      tag_138\n      tag_92\n      jump\t// in\n    tag_138:\n        /* \"#utility.yul\":1352:1471   */\n    tag_137:\n        /* \"#utility.yul\":1510:1511   */\n      0x00\n        /* \"#utility.yul\":1535:1588   */\n      tag_139\n        /* \"#utility.yul\":1580:1587   */\n      dup5\n        /* \"#utility.yul\":1571:1577   */\n      dup3\n        /* \"#utility.yul\":1560:1569   */\n      dup6\n        /* \"#utility.yul\":1556:1578   */\n      add\n        /* \"#utility.yul\":1535:1588   */\n      tag_97\n      jump\t// in\n    tag_139:\n        /* \"#utility.yul\":1525:1588   */\n      swap2\n      pop\n        /* \"#utility.yul\":1481:1598   */\n      pop\n        /* \"#utility.yul\":1276:1605   */\n      swap3\n      swap2\n      pop\n      pop\n      jump\t// out\n        /* \"#utility.yul\":1611:1729   */\n    tag_98:\n        /* \"#utility.yul\":1698:1722   */\n      tag_141\n        /* \"#utility.yul\":1716:1721   */\n      dup2\n        /* \"#utility.yul\":1698:1722   */\n      tag_95\n      jump\t// in\n    tag_141:\n        /* \"#utility.yul\":1693:1696   */\n      dup3\n        /* \"#utility.yul\":1686:1723   */\n      mstore\n        /* \"#utility.yul\":1611:1729   */\n      pop\n      pop\n      jump\t// out\n        /* \"#utility.yul\":1735:1957   */\n    tag_33:\n        /* \"#utility.yul\":1828:1832   */\n      0x00\n        /* \"#utility.yul\":1866:1868   */\n      0x20\n        /* \"#utility.yul\":1855:1864   */\n      dup3\n        /* \"#utility.yul\":1851:1869   */\n      add\n        /* \"#utility.yul\":1843:1869   */\n      swap1\n      pop\n        /* \"#utility.yul\":1879:1950   */\n      tag_143\n        /* \"#utility.yul\":1947:1948   */\n      0x00\n        /* \"#utility.yul\":1936:1945   */\n      dup4\n        /* \"#utility.yul\":1932:1949   */\n      add\n        /* \"#utility.yul\":1923:1929   */\n      dup5\n        /* \"#utility.yul\":1879:1950   */\n      tag_98\n      jump\t// in\n    tag_143:\n        /* \"#utility.yul\":1735:1957   */\n      swap3\n      swap2\n      pop\n      pop\n      jump\t// out\n        /* \"#utility.yul\":1963:2085   */\n    tag_99:\n        /* \"#utility.yul\":2036:2060   */\n      tag_145\n        /* \"#utility.yul\":2054:2059   */\n      dup2\n        /* \"#utility.yul\":2036:2060   */\n      tag_89\n      jump\t// in\n    tag_145:\n        /* \"#utility.yul\":2029:2034   */\n      dup2\n        /* \"#utility.yul\":2026:2061   */\n      eq\n        /* \"#utility.yul\":2016:2079   */\n      tag_146\n      jumpi\n        /* \"#utility.yul\":2075:2076   */\n      0x00\n        /* \"#utility.yul\":2072:2073   */\n      dup1\n        /* \"#utility.yul\":2065:2077   */\n      revert\n        /* \"#utility.yul\":2016:2079   */\n    tag_146:\n        /* \"#utility.yul\":1963:2085   */\n      pop\n      jump\t// out\n        /* \"#utility.yul\":2091:2230   */\n    tag_100:\n        /* \"#utility.yul\":2137:2142   */\n      0x00\n        /* \"#utility.yul\":2175:2181   */\n      dup2\n        /* \"#utility.yul\":2162:2182   */\n      calldataload\n        /* \"#utility.yul\":2153:2182   */\n      swap1\n      pop\n        /* \"#utility.yul\":2191:2224   */\n      tag_148\n        /* \"#utility.yul\":2218:2223   */\n      dup2\n        /* \"#utility.yul\":2191:2224   */\n      tag_99\n      jump\t// in\n    tag_148:\n        /* \"#utility.yul\":2091:2230   */\n      swap3\n      swap2\n      pop\n      pop\n      jump\t// out\n        /* \"#utility.yul\":2236:2565   */\n    tag_43:\n        /* \"#utility.yul\":2295:2301   */\n      0x00\n        /* \"#utility.yul\":2344:2346   */\n      0x20\n        /* \"#utility.yul\":2332:2341   */\n      dup3\n        /* \"#utility.yul\":2323:2330   */\n      dup5\n        /* \"#utility.yul\":2319:2342   */\n      sub\n        /* \"#utility.yul\":2315:2347   */\n      slt\n        /* \"#utility.yul\":2312:2431   */\n      iszero\n      tag_150\n      jumpi\n        /* \"#utility.yul\":2350:2429   */\n      tag_151\n      tag_92\n      jump\t// in\n    tag_151:\n        /* \"#utility.yul\":2312:2431   */\n    tag_150:\n        /* \"#utility.yul\":2470:2471   */\n      0x00\n        /* \"#utility.yul\":2495:2548   */\n      tag_152\n        /* \"#utility.yul\":2540:2547   */\n      dup5\n        /* \"#utility.yul\":2531:2537   */\n      dup3\n        /* \"#utility.yul\":2520:2529   */\n      dup6\n        /* \"#utility.yul\":2516:2538   */\n      add\n        /* \"#utility.yul\":2495:2548   */\n      tag_100\n      jump\t// in\n    tag_152:\n        /* \"#utility.yul\":2485:2548   */\n      swap2\n      pop\n        /* \"#utility.yul\":2441:2558   */\n      pop\n        /* \"#utility.yul\":2236:2565   */\n      swap3\n      swap2\n      pop\n      pop\n      jump\t// out\n        /* \"#utility.yul\":2571:2751   */\n    tag_101:\n        /* \"#utility.yul\":2619:2696   */\n      0x4e487b7100000000000000000000000000000000000000000000000000000000\n        /* \"#utility.yul\":2616:2617   */\n      0x00\n        /* \"#utility.yul\":2609:2697   */\n      mstore\n        /* \"#utility.yul\":2716:2720   */\n      0x12\n        /* \"#utility.yul\":2713:2714   */\n      0x04\n        /* \"#utility.yul\":2706:2721   */\n      mstore\n        /* \"#utility.yul\":2740:2744   */\n      0x24\n        /* \"#utility.yul\":2737:2738   */\n      0x00\n        /* \"#utility.yul\":2730:2745   */\n      revert\n        /* \"#utility.yul\":2757:2933   */\n    tag_50:\n        /* \"#utility.yul\":2789:2790   */\n      0x00\n        /* \"#utility.yul\":2806:2826   */\n      tag_155\n        /* \"#utility.yul\":2824:2825   */\n      dup3\n        /* \"#utility.yul\":2806:2826   */\n      tag_89\n      jump\t// in\n    tag_155:\n        /* \"#utility.yul\":2801:2826   */\n      swap2\n      pop\n        /* \"#utility.yul\":2840:2860   */\n      tag_156\n        /* \"#utility.yul\":2858:2859   */\n      dup4\n        /* \"#utility.yul\":2840:2860   */\n      tag_89\n      jump\t// in\n    tag_156:\n        /* \"#utility.yul\":2835:2860   */\n      swap3\n      pop\n        /* \"#utility.yul\":2879:2880   */\n      dup3\n        /* \"#utility.yul\":2869:2904   */\n      tag_157\n      jumpi\n        /* \"#utility.yul\":2884:2902   */\n      tag_158\n      tag_101\n      jump\t// in\n    tag_158:\n        /* \"#utility.yul\":2869:2904   */\n    tag_157:\n        /* \"#utility.yul\":2925:2926   */\n      dup3\n        /* \"#utility.yul\":2922:2923   */\n      dup3\n        /* \"#utility.yul\":2918:2927   */\n      mod\n        /* \"#utility.yul\":2913:2927   */\n      swap1\n      pop\n        /* \"#utility.yul\":2757:2933   */\n      swap3\n      swap2\n      pop\n      pop\n      jump\t// out\n        /* \"#utility.yul\":2939:3119   */\n    tag_56:\n        /* \"#utility.yul\":2987:3064   */\n      0x4e487b7100000000000000000000000000000000000000000000000000000000\n        /* \"#utility.yul\":2984:2985   */\n      0x00\n        /* \"#utility.yul\":2977:3065   */\n      mstore\n        /* \"#utility.yul\":3084:3088   */\n      0x32\n        /* \"#utility.yul\":3081:3082   */\n      0x04\n        /* \"#utility.yul\":3074:3089   */\n      mstore\n        /* \"#utility.yul\":3108:3112   */\n      0x24\n        /* \"#utility.yul\":3105:3106   */\n      0x00\n        /* \"#utility.yul\":3098:3113   */\n      revert\n        /* \"#utility.yul\":3125:3272   */\n    tag_102:\n        /* \"#utility.yul\":3226:3237   */\n      0x00\n        /* \"#utility.yul\":3263:3266   */\n      dup2\n        /* \"#utility.yul\":3248:3266   */\n      swap1\n      pop\n        /* \"#utility.yul\":3125:3272   */\n      swap3\n      swap2\n      pop\n      pop\n      jump\t// out\n        /* \"#utility.yul\":3278:3392   */\n    tag_103:\n      pop\n      jump\t// out\n        /* \"#utility.yul\":3398:3796   */\n    tag_104:\n        /* \"#utility.yul\":3557:3560   */\n      0x00\n        /* \"#utility.yul\":3578:3661   */\n      tag_163\n        /* \"#utility.yul\":3659:3660   */\n      0x00\n        /* \"#utility.yul\":3654:3657   */\n      dup4\n        /* \"#utility.yul\":3578:3661   */\n      tag_102\n      jump\t// in\n    tag_163:\n        /* \"#utility.yul\":3571:3661   */\n      swap2\n      pop\n        /* \"#utility.yul\":3670:3763   */\n      tag_164\n        /* \"#utility.yul\":3759:3762   */\n      dup3\n        /* \"#utility.yul\":3670:3763   */\n      tag_103\n      jump\t// in\n    tag_164:\n        /* \"#utility.yul\":3788:3789   */\n      0x00\n        /* \"#utility.yul\":3783:3786   */\n      dup3\n        /* \"#utility.yul\":3779:3790   */\n      add\n        /* \"#utility.yul\":3772:3790   */\n      swap1\n      pop\n        /* \"#utility.yul\":3398:3796   */\n      swap2\n      swap1\n      pop\n      jump\t// out\n        /* \"#utility.yul\":3802:4181   */\n    tag_59:\n        /* \"#utility.yul\":3986:3989   */\n      0x00\n        /* \"#utility.yul\":4008:4155   */\n      tag_166\n        /* \"#utility.yul\":4151:4154   */\n      dup3\n        /* \"#utility.yul\":4008:4155   */\n      tag_104\n      jump\t// in\n    tag_166:\n        /* \"#utility.yul\":4001:4155   */\n      swap2\n      pop\n        /* \"#utility.yul\":4172:4175   */\n      dup2\n        /* \"#utility.yul\":4165:4175   */\n      swap1\n      pop\n        /* \"#utility.yul\":3802:4181   */\n      swap2\n      swap1\n      pop\n      jump\t// out\n        /* \"#utility.yul\":4187:4356   */\n    tag_105:\n        /* \"#utility.yul\":4271:4282   */\n      0x00\n        /* \"#utility.yul\":4305:4311   */\n      dup3\n        /* \"#utility.yul\":4300:4303   */\n      dup3\n        /* \"#utility.yul\":4293:4312   */\n      mstore\n        /* \"#utility.yul\":4345:4349   */\n      0x20\n        /* \"#utility.yul\":4340:4343   */\n      dup3\n        /* \"#utility.yul\":4336:4350   */\n      add\n        /* \"#utility.yul\":4321:4350   */\n      swap1\n      pop\n        /* \"#utility.yul\":4187:4356   */\n      swap3\n      swap2\n      pop\n      pop\n      jump\t// out\n        /* \"#utility.yul\":4362:4583   */\n    tag_106:\n        /* \"#utility.yul\":4502:4536   */\n      0x7061676f2066616c6c69646f2c20706f72206661766f72207265696e74656e74\n        /* \"#utility.yul\":4498:4499   */\n      0x00\n        /* \"#utility.yul\":4490:4496   */\n      dup3\n        /* \"#utility.yul\":4486:4500   */\n      add\n        /* \"#utility.yul\":4479:4537   */\n      mstore\n        /* \"#utility.yul\":4571:4575   */\n      0x6172000000000000000000000000000000000000000000000000000000000000\n        /* \"#utility.yul\":4566:4568   */\n      0x20\n        /* \"#utility.yul\":4558:4564   */\n      dup3\n        /* \"#utility.yul\":4554:4569   */\n      add\n        /* \"#utility.yul\":4547:4576   */\n      mstore\n        /* \"#utility.yul\":4362:4583   */\n      pop\n      jump\t// out\n        /* \"#utility.yul\":4589:4955   */\n    tag_107:\n        /* \"#utility.yul\":4731:4734   */\n      0x00\n        /* \"#utility.yul\":4752:4819   */\n      tag_170\n        /* \"#utility.yul\":4816:4818   */\n      0x22\n        /* \"#utility.yul\":4811:4814   */\n      dup4\n        /* \"#utility.yul\":4752:4819   */\n      tag_105\n      jump\t// in\n    tag_170:\n        /* \"#utility.yul\":4745:4819   */\n      swap2\n      pop\n        /* \"#utility.yul\":4828:4921   */\n      tag_171\n        /* \"#utility.yul\":4917:4920   */\n      dup3\n        /* \"#utility.yul\":4828:4921   */\n      tag_106\n      jump\t// in\n    tag_171:\n        /* \"#utility.yul\":4946:4948   */\n      0x40\n        /* \"#utility.yul\":4941:4944   */\n      dup3\n        /* \"#utility.yul\":4937:4949   */\n      add\n        /* \"#utility.yul\":4930:4949   */\n      swap1\n      pop\n        /* \"#utility.yul\":4589:4955   */\n      swap2\n      swap1\n      pop\n      jump\t// out\n        /* \"#utility.yul\":4961:5380   */\n    tag_65:\n        /* \"#utility.yul\":5127:5131   */\n      0x00\n        /* \"#utility.yul\":5165:5167   */\n      0x20\n        /* \"#utility.yul\":5154:5163   */\n      dup3\n        /* \"#utility.yul\":5150:5168   */\n      add\n        /* \"#utility.yul\":5142:5168   */\n      swap1\n      pop\n        /* \"#utility.yul\":5214:5223   */\n      dup2\n        /* \"#utility.yul\":5208:5212   */\n      dup2\n        /* \"#utility.yul\":5204:5224   */\n      sub\n        /* \"#utility.yul\":5200:5201   */\n      0x00\n        /* \"#utility.yul\":5189:5198   */\n      dup4\n        /* \"#utility.yul\":5185:5202   */\n      add\n        /* \"#utility.yul\":5178:5225   */\n      mstore\n        /* \"#utility.yul\":5242:5373   */\n      tag_173\n        /* \"#utility.yul\":5368:5372   */\n      dup2\n        /* \"#utility.yul\":5242:5373   */\n      tag_107\n      jump\t// in\n    tag_173:\n        /* \"#utility.yul\":5234:5373   */\n      swap1\n      pop\n        /* \"#utility.yul\":4961:5380   */\n      swap2\n      swap1\n      pop\n      jump\t// out\n        /* \"#utility.yul\":5386:5555   */\n    tag_108:\n        /* \"#utility.yul\":5526:5547   */\n      0x506f72206661766f72207061677565206d617300000000000000000000000000\n        /* \"#utility.yul\":5522:5523   */\n      0x00\n        /* \"#utility.yul\":5514:5520   */\n      dup3\n        /* \"#utility.yul\":5510:5524   */\n      add\n        /* \"#utility.yul\":5503:5548   */\n      mstore\n        /* \"#utility.yul\":5386:5555   */\n      pop\n      jump\t// out\n        /* \"#utility.yul\":5561:5927   */\n    tag_109:\n        /* \"#utility.yul\":5703:5706   */\n      0x00\n        /* \"#utility.yul\":5724:5791   */\n      tag_176\n        /* \"#utility.yul\":5788:5790   */\n      0x13\n        /* \"#utility.yul\":5783:5786   */\n      dup4\n        /* \"#utility.yul\":5724:5791   */\n      tag_105\n      jump\t// in\n    tag_176:\n        /* \"#utility.yul\":5717:5791   */\n      swap2\n      pop\n        /* \"#utility.yul\":5800:5893   */\n      tag_177\n        /* \"#utility.yul\":5889:5892   */\n      dup3\n        /* \"#utility.yul\":5800:5893   */\n      tag_108\n      jump\t// in\n    tag_177:\n        /* \"#utility.yul\":5918:5920   */\n      0x20\n        /* \"#utility.yul\":5913:5916   */\n      dup3\n        /* \"#utility.yul\":5909:5921   */\n      add\n        /* \"#utility.yul\":5902:5921   */\n      swap1\n      pop\n        /* \"#utility.yul\":5561:5927   */\n      swap2\n      swap1\n      pop\n      jump\t// out\n        /* \"#utility.yul\":5933:6352   */\n    tag_71:\n        /* \"#utility.yul\":6099:6103   */\n      0x00\n        /* \"#utility.yul\":6137:6139   */\n      0x20\n        /* \"#utility.yul\":6126:6135   */\n      dup3\n        /* \"#utility.yul\":6122:6140   */\n      add\n        /* \"#utility.yul\":6114:6140   */\n      swap1\n      pop\n        /* \"#utility.yul\":6186:6195   */\n      dup2\n        /* \"#utility.yul\":6180:6184   */\n      dup2\n        /* \"#utility.yul\":6176:6196   */\n      sub\n        /* \"#utility.yul\":6172:6173   */\n      0x00\n        /* \"#utility.yul\":6161:6170   */\n      dup4\n        /* \"#utility.yul\":6157:6174   */\n      add\n        /* \"#utility.yul\":6150:6197   */\n      mstore\n        /* \"#utility.yul\":6214:6345   */\n      tag_179\n        /* \"#utility.yul\":6340:6344   */\n      dup2\n        /* \"#utility.yul\":6214:6345   */\n      tag_109\n      jump\t// in\n    tag_179:\n        /* \"#utility.yul\":6206:6345   */\n      swap1\n      pop\n        /* \"#utility.yul\":5933:6352   */\n      swap2\n      swap1\n      pop\n      jump\t// out\n        /* \"#utility.yul\":6358:6533   */\n    tag_110:\n        /* \"#utility.yul\":6498:6525   */\n      0x706f72206661766f7220706167617220656c206d696e696d6f00000000000000\n        /* \"#utility.yul\":6494:6495   */\n      0x00\n        /* \"#utility.yul\":6486:6492   */\n      dup3\n        /* \"#utility.yul\":6482:6496   */\n      add\n        /* \"#utility.yul\":6475:6526   */\n      mstore\n        /* \"#utility.yul\":6358:6533   */\n      pop\n      jump\t// out\n        /* \"#utility.yul\":6539:6905   */\n    tag_111:\n        /* \"#utility.yul\":6681:6684   */\n      0x00\n        /* \"#utility.yul\":6702:6769   */\n      tag_182\n        /* \"#utility.yul\":6766:6768   */\n      0x19\n        /* \"#utility.yul\":6761:6764   */\n      dup4\n        /* \"#utility.yul\":6702:6769   */\n      tag_105\n      jump\t// in\n    tag_182:\n        /* \"#utility.yul\":6695:6769   */\n      swap2\n      pop\n        /* \"#utility.yul\":6778:6871   */\n      tag_183\n        /* \"#utility.yul\":6867:6870   */\n      dup3\n        /* \"#utility.yul\":6778:6871   */\n      tag_110\n      jump\t// in\n    tag_183:\n        /* \"#utility.yul\":6896:6898   */\n      0x20\n        /* \"#utility.yul\":6891:6894   */\n      dup3\n        /* \"#utility.yul\":6887:6899   */\n      add\n        /* \"#utility.yul\":6880:6899   */\n      swap1\n      pop\n        /* \"#utility.yul\":6539:6905   */\n      swap2\n      swap1\n      pop\n      jump\t// out\n        /* \"#utility.yul\":6911:7330   */\n    tag_75:\n        /* \"#utility.yul\":7077:7081   */\n      0x00\n        /* \"#utility.yul\":7115:7117   */\n      0x20\n        /* \"#utility.yul\":7104:7113   */\n      dup3\n        /* \"#utility.yul\":7100:7118   */\n      add\n        /* \"#utility.yul\":7092:7118   */\n      swap1\n      pop\n        /* \"#utility.yul\":7164:7173   */\n      dup2\n        /* \"#utility.yul\":7158:7162   */\n      dup2\n        /* \"#utility.yul\":7154:7174   */\n      sub\n        /* \"#utility.yul\":7150:7151   */\n      0x00\n        /* \"#utility.yul\":7139:7148   */\n      dup4\n        /* \"#utility.yul\":7135:7152   */\n      add\n        /* \"#utility.yul\":7128:7175   */\n      mstore\n        /* \"#utility.yul\":7192:7323   */\n      tag_185\n        /* \"#utility.yul\":7318:7322   */\n      dup2\n        /* \"#utility.yul\":7192:7323   */\n      tag_111\n      jump\t// in\n    tag_185:\n        /* \"#utility.yul\":7184:7323   */\n      swap1\n      pop\n        /* \"#utility.yul\":6911:7330   */\n      swap2\n      swap1\n      pop\n      jump\t// out\n        /* \"#utility.yul\":7336:7516   */\n    tag_112:\n        /* \"#utility.yul\":7384:7461   */\n      0x4e487b7100000000000000000000000000000000000000000000000000000000\n        /* \"#utility.yul\":7381:7382   */\n      0x00\n        /* \"#utility.yul\":7374:7462   */\n      mstore\n        /* \"#utility.yul\":7481:7485   */\n      0x11\n        /* \"#utility.yul\":7478:7479   */\n      0x04\n        /* \"#utility.yul\":7471:7486   */\n      mstore\n        /* \"#utility.yul\":7505:7509   */\n      0x24\n        /* \"#utility.yul\":7502:7503   */\n      0x00\n        /* \"#utility.yul\":7495:7510   */\n      revert\n        /* \"#utility.yul\":7522:7713   */\n    tag_78:\n        /* \"#utility.yul\":7562:7565   */\n      0x00\n        /* \"#utility.yul\":7581:7601   */\n      tag_188\n        /* \"#utility.yul\":7599:7600   */\n      dup3\n        /* \"#utility.yul\":7581:7601   */\n      tag_89\n      jump\t// in\n    tag_188:\n        /* \"#utility.yul\":7576:7601   */\n      swap2\n      pop\n        /* \"#utility.yul\":7615:7635   */\n      tag_189\n        /* \"#utility.yul\":7633:7634   */\n      dup4\n        /* \"#utility.yul\":7615:7635   */\n      tag_89\n      jump\t// in\n    tag_189:\n        /* \"#utility.yul\":7610:7635   */\n      swap3\n      pop\n        /* \"#utility.yul\":7658:7659   */\n      dup3\n        /* \"#utility.yul\":7655:7656   */\n      dup3\n        /* \"#utility.yul\":7651:7660   */\n      add\n        /* \"#utility.yul\":7644:7660   */\n      swap1\n      pop\n        /* \"#utility.yul\":7679:7682   */\n      dup1\n        /* \"#utility.yul\":7676:7677   */\n      dup3\n        /* \"#utility.yul\":7673:7683   */\n      gt\n        /* \"#utility.yul\":7670:7706   */\n      iszero\n      tag_190\n      jumpi\n        /* \"#utility.yul\":7686:7704   */\n      tag_191\n      tag_112\n      jump\t// in\n    tag_191:\n        /* \"#utility.yul\":7670:7706   */\n    tag_190:\n        /* \"#utility.yul\":7522:7713   */\n      swap3\n      swap2\n      pop\n      pop\n      jump\t// out\n        /* \"#utility.yul\":7719:7813   */\n    tag_113:\n        /* \"#utility.yul\":7752:7760   */\n      0x00\n        /* \"#utility.yul\":7800:7805   */\n      dup2\n        /* \"#utility.yul\":7796:7798   */\n      0x60\n        /* \"#utility.yul\":7792:7806   */\n      shl\n        /* \"#utility.yul\":7771:7806   */\n      swap1\n      pop\n        /* \"#utility.yul\":7719:7813   */\n      swap2\n      swap1\n      pop\n      jump\t// out\n        /* \"#utility.yul\":7819:7913   */\n    tag_114:\n        /* \"#utility.yul\":7858:7865   */\n      0x00\n        /* \"#utility.yul\":7887:7907   */\n      tag_194\n        /* \"#utility.yul\":7901:7906   */\n      dup3\n        /* \"#utility.yul\":7887:7907   */\n      tag_113\n      jump\t// in\n    tag_194:\n        /* \"#utility.yul\":7876:7907   */\n      swap1\n      pop\n        /* \"#utility.yul\":7819:7913   */\n      swap2\n      swap1\n      pop\n      jump\t// out\n        /* \"#utility.yul\":7919:8019   */\n    tag_115:\n        /* \"#utility.yul\":7958:7965   */\n      0x00\n        /* \"#utility.yul\":7987:8013   */\n      tag_196\n        /* \"#utility.yul\":8007:8012   */\n      dup3\n        /* \"#utility.yul\":7987:8013   */\n      tag_114\n      jump\t// in\n    tag_196:\n        /* \"#utility.yul\":7976:8013   */\n      swap1\n      pop\n        /* \"#utility.yul\":7919:8019   */\n      swap2\n      swap1\n      pop\n      jump\t// out\n        /* \"#utility.yul\":8025:8182   */\n    tag_116:\n        /* \"#utility.yul\":8130:8175   */\n      tag_198\n        /* \"#utility.yul\":8150:8174   */\n      tag_199\n        /* \"#utility.yul\":8168:8173   */\n      dup3\n        /* \"#utility.yul\":8150:8174   */\n      tag_95\n      jump\t// in\n    tag_199:\n        /* \"#utility.yul\":8130:8175   */\n      tag_115\n      jump\t// in\n    tag_198:\n        /* \"#utility.yul\":8125:8128   */\n      dup3\n        /* \"#utility.yul\":8118:8176   */\n      mstore\n        /* \"#utility.yul\":8025:8182   */\n      pop\n      pop\n      jump\t// out\n        /* \"#utility.yul\":8188:8267   */\n    tag_117:\n        /* \"#utility.yul\":8227:8234   */\n      0x00\n        /* \"#utility.yul\":8256:8261   */\n      dup2\n        /* \"#utility.yul\":8245:8261   */\n      swap1\n      pop\n        /* \"#utility.yul\":8188:8267   */\n      swap2\n      swap1\n      pop\n      jump\t// out\n        /* \"#utility.yul\":8273:8430   */\n    tag_118:\n        /* \"#utility.yul\":8378:8423   */\n      tag_202\n        /* \"#utility.yul\":8398:8422   */\n      tag_203\n        /* \"#utility.yul\":8416:8421   */\n      dup3\n        /* \"#utility.yul\":8398:8422   */\n      tag_89\n      jump\t// in\n    tag_203:\n        /* \"#utility.yul\":8378:8423   */\n      tag_117\n      jump\t// in\n    tag_202:\n        /* \"#utility.yul\":8373:8376   */\n      dup3\n        /* \"#utility.yul\":8366:8424   */\n      mstore\n        /* \"#utility.yul\":8273:8430   */\n      pop\n      pop\n      jump\t// out\n        /* \"#utility.yul\":8436:8833   */\n    tag_81:\n        /* \"#utility.yul\":8576:8579   */\n      0x00\n        /* \"#utility.yul\":8591:8666   */\n      tag_205\n        /* \"#utility.yul\":8662:8665   */\n      dup3\n        /* \"#utility.yul\":8653:8659   */\n      dup6\n        /* \"#utility.yul\":8591:8666   */\n      tag_116\n      jump\t// in\n    tag_205:\n        /* \"#utility.yul\":8691:8693   */\n      0x14\n        /* \"#utility.yul\":8686:8689   */\n      dup3\n        /* \"#utility.yul\":8682:8694   */\n      add\n        /* \"#utility.yul\":8675:8694   */\n      swap2\n      pop\n        /* \"#utility.yul\":8704:8779   */\n      tag_206\n        /* \"#utility.yul\":8775:8778   */\n      dup3\n        /* \"#utility.yul\":8766:8772   */\n      dup5\n        /* \"#utility.yul\":8704:8779   */\n      tag_118\n      jump\t// in\n    tag_206:\n        /* \"#utility.yul\":8804:8806   */\n      0x20\n        /* \"#utility.yul\":8799:8802   */\n      dup3\n        /* \"#utility.yul\":8795:8807   */\n      add\n        /* \"#utility.yul\":8788:8807   */\n      swap2\n      pop\n        /* \"#utility.yul\":8824:8827   */\n      dup2\n        /* \"#utility.yul\":8817:8827   */\n      swap1\n      pop\n        /* \"#utility.yul\":8436:8833   */\n      swap4\n      swap3\n      pop\n      pop\n      pop\n      jump\t// out\n\n    auxdata: 0xa264697066735822122096935691ae999d1bb38f3e82eaeb8d113d7e448e4e3c537c0d6d815b54615e6f64736f6c634300081a0033\n}\n",
				"bytecode": {
					"linkReferences": {},
					"object": "6080604052348015600e575f80fd5b50604051610ae9380380610ae98339818101604052810190602e919060ab565b805f819055503360015f6101000a81548173ffffffffffffffffffffffffffffffffffffffff021916908373ffffffffffffffffffffffffffffffffffffffff1602179055505060d1565b5f80fd5b5f819050919050565b608d81607d565b81146096575f80fd5b50565b5f8151905060a5816086565b92915050565b5f6020828403121560bd5760bc6079565b5b5f60c8848285016099565b91505092915050565b610a0b806100de5f395ff3fe60806040526004361061007a575f3560e01c80638da5cb5b1161004d5780638da5cb5b1461012457806393e84cd91461014e578063dbdff2c114610158578063f71d96cb146101825761007a565b806312065fe01461007e57806324ec7590146100a85780634e33f83b146100d25780635d495aea1461010e575b5f80fd5b348015610089575f80fd5b506100926101be565b60405161009f919061058d565b60405180910390f35b3480156100b3575f80fd5b506100bc6101c5565b6040516100c9919061058d565b60405180910390f35b3480156100dd575f80fd5b506100f860048036038101906100f39190610604565b6101ca565b604051610105919061058d565b60405180910390f35b348015610119575f80fd5b506101226101df565b005b34801561012f575f80fd5b5061013861034d565b604051610145919061063e565b60405180910390f35b610156610372565b005b348015610163575f80fd5b5061016c6104af565b604051610179919061058d565b60405180910390f35b34801561018d575f80fd5b506101a860048036038101906101a39190610681565b610501565b6040516101b5919061063e565b60405180910390f35b5f47905090565b5f5481565b6003602052805f5260405f205f915090505481565b5f6002805490506101ee6104af565b6101f891906106d9565b90505f5b60028054905081101561033c575f6002828154811061021e5761021d610709565b5b905f5260205f20015f9054906101000a900473ffffffffffffffffffffffffffffffffffffffff1690505f8173ffffffffffffffffffffffffffffffffffffffff1660035f8473ffffffffffffffffffffffffffffffffffffffff1673ffffffffffffffffffffffffffffffffffffffff1681526020019081526020015f20546040516102aa90610763565b5f6040518083038185875af1925050503d805f81146102e4576040519150601f19603f3d011682016040523d82523d5f602084013e6102e9565b606091505b505090508061032d576040517f08c379a0000000000000000000000000000000000000000000000000000000008152600401610324906107f7565b60405180910390fd5b505080806001019150506101fc565b5060025f61034a919061053c565b50565b60015f9054906101000a900473ffffffffffffffffffffffffffffffffffffffff1681565b5f543410156103b6576040517f08c379a00000000000000000000000000000000000000000000000000000000081526004016103ad9061085f565b60405180910390fd5b5f543410156103fa576040517f08c379a00000000000000000000000000000000000000000000000000000000081526004016103f1906108c7565b60405180910390fd5b600233908060018154018082558091505060019003905f5260205f20015f9091909190916101000a81548173ffffffffffffffffffffffffffffffffffffffff021916908373ffffffffffffffffffffffffffffffffffffffff1602179055503460035f3373ffffffffffffffffffffffffffffffffffffffff1673ffffffffffffffffffffffffffffffffffffffff1681526020019081526020015f205f8282546104a69190610912565b92505081905550565b5f60015f9054906101000a900473ffffffffffffffffffffffffffffffffffffffff16426040516020016104e49291906109aa565b604051602081830303815290604052805190602001205f1c905090565b60028181548110610510575f80fd5b905f5260205f20015f915054906101000a900473ffffffffffffffffffffffffffffffffffffffff1681565b5080545f8255905f5260205f2090810190610557919061055a565b50565b5b80821115610571575f815f90555060010161055b565b5090565b5f819050919050565b61058781610575565b82525050565b5f6020820190506105a05f83018461057e565b92915050565b5f80fd5b5f73ffffffffffffffffffffffffffffffffffffffff82169050919050565b5f6105d3826105aa565b9050919050565b6105e3816105c9565b81146105ed575f80fd5b50565b5f813590506105fe816105da565b92915050565b5f60208284031215610619576106186105a6565b5b5f610626848285016105f0565b91505092915050565b610638816105c9565b82525050565b5f6020820190506106515f83018461062f565b92915050565b61066081610575565b811461066a575f80fd5b50565b5f8135905061067b81610657565b92915050565b5f60208284031215610696576106956105a6565b5b5f6106a38482850161066d565b91505092915050565b7f4e487b71000000000000000000000000000000000000000000000000000000005f52601260045260245ffd5b5f6106e382610575565b91506106ee83610575565b9250826106fe576106fd6106ac565b5b828206905092915050565b7f4e487b71000000000000000000000000000000000000000000000000000000005f52603260045260245ffd5b5f81905092915050565b50565b5f61074e5f83610736565b915061075982610740565b5f82019050919050565b5f61076d82610743565b9150819050919050565b5f82825260208201905092915050565b7f7061676f2066616c6c69646f2c20706f72206661766f72207265696e74656e745f8201527f6172000000000000000000000000000000000000000000000000000000000000602082015250565b5f6107e1602283610777565b91506107ec82610787565b604082019050919050565b5f6020820190508181035f83015261080e816107d5565b9050919050565b7f506f72206661766f72207061677565206d6173000000000000000000000000005f82015250565b5f610849601383610777565b915061085482610815565b602082019050919050565b5f6020820190508181035f8301526108768161083d565b9050919050565b7f706f72206661766f7220706167617220656c206d696e696d6f000000000000005f82015250565b5f6108b1601983610777565b91506108bc8261087d565b602082019050919050565b5f6020820190508181035f8301526108de816108a5565b9050919050565b7f4e487b71000000000000000000000000000000000000000000000000000000005f52601160045260245ffd5b5f61091c82610575565b915061092783610575565b925082820190508082111561093f5761093e6108e5565b5b92915050565b5f8160601b9050919050565b5f61095b82610945565b9050919050565b5f61096c82610951565b9050919050565b61098461097f826105c9565b610962565b82525050565b5f819050919050565b6109a461099f82610575565b61098a565b82525050565b5f6109b58285610973565b6014820191506109c58284610993565b602082019150819050939250505056fea264697066735822122096935691ae999d1bb38f3e82eaeb8d113d7e448e4e3c537c0d6d815b54615e6f64736f6c634300081a0033",
					"opcodes": "PUSH1 0x80 PUSH1 0x40 MSTORE CALLVALUE DUP1 ISZERO PUSH1 0xE JUMPI PUSH0 DUP1 REVERT JUMPDEST POP PUSH1 0x40 MLOAD PUSH2 0xAE9 CODESIZE SUB DUP1 PUSH2 0xAE9 DUP4 CODECOPY DUP2 DUP2 ADD PUSH1 0x40 MSTORE DUP2 ADD SWAP1 PUSH1 0x2E SWAP2 SWAP1 PUSH1 0xAB JUMP JUMPDEST DUP1 PUSH0 DUP2 SWAP1 SSTORE POP CALLER PUSH1 0x1 PUSH0 PUSH2 0x100 EXP DUP2 SLOAD DUP2 PUSH20 0xFFFFFFFFFFFFFFFFFFFFFFFFFFFFFFFFFFFFFFFF MUL NOT AND SWAP1 DUP4 PUSH20 0xFFFFFFFFFFFFFFFFFFFFFFFFFFFFFFFFFFFFFFFF AND MUL OR SWAP1 SSTORE POP POP PUSH1 0xD1 JUMP JUMPDEST PUSH0 DUP1 REVERT JUMPDEST PUSH0 DUP2 SWAP1 POP SWAP2 SWAP1 POP JUMP JUMPDEST PUSH1 0x8D DUP2 PUSH1 0x7D JUMP JUMPDEST DUP2 EQ PUSH1 0x96 JUMPI PUSH0 DUP1 REVERT JUMPDEST POP JUMP JUMPDEST PUSH0 DUP2 MLOAD SWAP1 POP PUSH1 0xA5 DUP2 PUSH1 0x86 JUMP JUMPDEST SWAP3 SWAP2 POP POP JUMP JUMPDEST PUSH0 PUSH1 0x20 DUP3 DUP5 SUB SLT ISZERO PUSH1 0xBD JUMPI PUSH1 0xBC PUSH1 0x79 JUMP JUMPDEST JUMPDEST PUSH0 PUSH1 0xC8 DUP5 DUP3 DUP6 ADD PUSH1 0x99 JUMP JUMPDEST SWAP2 POP POP SWAP3 SWAP2 POP POP JUMP JUMPDEST PUSH2 0xA0B DUP1 PUSH2 0xDE PUSH0 CODECOPY PUSH0 RETURN INVALID PUSH1 0x80 PUSH1 0x40 MSTORE PUSH1 0x4 CALLDATASIZE LT PUSH2 0x7A JUMPI PUSH0 CALLDATALOAD PUSH1 0xE0 SHR DUP1 PUSH4 0x8DA5CB5B GT PUSH2 0x4D JUMPI DUP1 PUSH4 0x8DA5CB5B EQ PUSH2 0x124 JUMPI DUP1 PUSH4 0x93E84CD9 EQ PUSH2 0x14E JUMPI DUP1 PUSH4 0xDBDFF2C1 EQ PUSH2 0x158 JUMPI DUP1 PUSH4 0xF71D96CB EQ PUSH2 0x182 JUMPI PUSH2 0x7A JUMP JUMPDEST DUP1 PUSH4 0x12065FE0 EQ PUSH2 0x7E JUMPI DUP1 PUSH4 0x24EC7590 EQ PUSH2 0xA8 JUMPI DUP1 PUSH4 0x4E33F83B EQ PUSH2 0xD2 JUMPI DUP1 PUSH4 0x5D495AEA EQ PUSH2 0x10E JUMPI JUMPDEST PUSH0 DUP1 REVERT JUMPDEST CALLVALUE DUP1 ISZERO PUSH2 0x89 JUMPI PUSH0 DUP1 REVERT JUMPDEST POP PUSH2 0x92 PUSH2 0x1BE JUMP JUMPDEST PUSH1 0x40 MLOAD PUSH2 0x9F SWAP2 SWAP1 PUSH2 0x58D JUMP JUMPDEST PUSH1 0x40 MLOAD DUP1 SWAP2 SUB SWAP1 RETURN JUMPDEST CALLVALUE DUP1 ISZERO PUSH2 0xB3 JUMPI PUSH0 DUP1 REVERT JUMPDEST POP PUSH2 0xBC PUSH2 0x1C5 JUMP JUMPDEST PUSH1 0x40 MLOAD PUSH2 0xC9 SWAP2 SWAP1 PUSH2 0x58D JUMP JUMPDEST PUSH1 0x40 MLOAD DUP1 SWAP2 SUB SWAP1 RETURN JUMPDEST CALLVALUE DUP1 ISZERO PUSH2 0xDD JUMPI PUSH0 DUP1 REVERT JUMPDEST POP PUSH2 0xF8 PUSH1 0x4 DUP1 CALLDATASIZE SUB DUP2 ADD SWAP1 PUSH2 0xF3 SWAP2 SWAP1 PUSH2 0x604 JUMP JUMPDEST PUSH2 0x1CA JUMP JUMPDEST PUSH1 0x40 MLOAD PUSH2 0x105 SWAP2 SWAP1 PUSH2 0x58D JUMP JUMPDEST PUSH1 0x40 MLOAD DUP1 SWAP2 SUB SWAP1 RETURN JUMPDEST CALLVALUE DUP1 ISZERO PUSH2 0x119 JUMPI PUSH0 DUP1 REVERT JUMPDEST POP PUSH2 0x122 PUSH2 0x1DF JUMP JUMPDEST STOP JUMPDEST CALLVALUE DUP1 ISZERO PUSH2 0x12F JUMPI PUSH0 DUP1 REVERT JUMPDEST POP PUSH2 0x138 PUSH2 0x34D JUMP JUMPDEST PUSH1 0x40 MLOAD PUSH2 0x145 SWAP2 SWAP1 PUSH2 0x63E JUMP JUMPDEST PUSH1 0x40 MLOAD DUP1 SWAP2 SUB SWAP1 RETURN JUMPDEST PUSH2 0x156 PUSH2 0x372 JUMP JUMPDEST STOP JUMPDEST CALLVALUE DUP1 ISZERO PUSH2 0x163 JUMPI PUSH0 DUP1 REVERT JUMPDEST POP PUSH2 0x16C PUSH2 0x4AF JUMP JUMPDEST PUSH1 0x40 MLOAD PUSH2 0x179 SWAP2 SWAP1 PUSH2 0x58D JUMP JUMPDEST PUSH1 0x40 MLOAD DUP1 SWAP2 SUB SWAP1 RETURN JUMPDEST CALLVALUE DUP1 ISZERO PUSH2 0x18D JUMPI PUSH0 DUP1 REVERT JUMPDEST POP PUSH2 0x1A8 PUSH1 0x4 DUP1 CALLDATASIZE SUB DUP2 ADD SWAP1 PUSH2 0x1A3 SWAP2 SWAP1 PUSH2 0x681 JUMP JUMPDEST PUSH2 0x501 JUMP JUMPDEST PUSH1 0x40 MLOAD PUSH2 0x1B5 SWAP2 SWAP1 PUSH2 0x63E JUMP JUMPDEST PUSH1 0x40 MLOAD DUP1 SWAP2 SUB SWAP1 RETURN JUMPDEST PUSH0 SELFBALANCE SWAP1 POP SWAP1 JUMP JUMPDEST PUSH0 SLOAD DUP2 JUMP JUMPDEST PUSH1 0x3 PUSH1 0x20 MSTORE DUP1 PUSH0 MSTORE PUSH1 0x40 PUSH0 KECCAK256 PUSH0 SWAP2 POP SWAP1 POP SLOAD DUP2 JUMP JUMPDEST PUSH0 PUSH1 0x2 DUP1 SLOAD SWAP1 POP PUSH2 0x1EE PUSH2 0x4AF JUMP JUMPDEST PUSH2 0x1F8 SWAP2 SWAP1 PUSH2 0x6D9 JUMP JUMPDEST SWAP1 POP PUSH0 JUMPDEST PUSH1 0x2 DUP1 SLOAD SWAP1 POP DUP2 LT ISZERO PUSH2 0x33C JUMPI PUSH0 PUSH1 0x2 DUP3 DUP2 SLOAD DUP2 LT PUSH2 0x21E JUMPI PUSH2 0x21D PUSH2 0x709 JUMP JUMPDEST JUMPDEST SWAP1 PUSH0 MSTORE PUSH1 0x20 PUSH0 KECCAK256 ADD PUSH0 SWAP1 SLOAD SWAP1 PUSH2 0x100 EXP SWAP1 DIV PUSH20 0xFFFFFFFFFFFFFFFFFFFFFFFFFFFFFFFFFFFFFFFF AND SWAP1 POP PUSH0 DUP2 PUSH20 0xFFFFFFFFFFFFFFFFFFFFFFFFFFFFFFFFFFFFFFFF AND PUSH1 0x3 PUSH0 DUP5 PUSH20 0xFFFFFFFFFFFFFFFFFFFFFFFFFFFFFFFFFFFFFFFF AND PUSH20 0xFFFFFFFFFFFFFFFFFFFFFFFFFFFFFFFFFFFFFFFF AND DUP2 MSTORE PUSH1 0x20 ADD SWAP1 DUP2 MSTORE PUSH1 0x20 ADD PUSH0 KECCAK256 SLOAD PUSH1 0x40 MLOAD PUSH2 0x2AA SWAP1 PUSH2 0x763 JUMP JUMPDEST PUSH0 PUSH1 0x40 MLOAD DUP1 DUP4 SUB DUP2 DUP6 DUP8 GAS CALL SWAP3 POP POP POP RETURNDATASIZE DUP1 PUSH0 DUP2 EQ PUSH2 0x2E4 JUMPI PUSH1 0x40 MLOAD SWAP2 POP PUSH1 0x1F NOT PUSH1 0x3F RETURNDATASIZE ADD AND DUP3 ADD PUSH1 0x40 MSTORE RETURNDATASIZE DUP3 MSTORE RETURNDATASIZE PUSH0 PUSH1 0x20 DUP5 ADD RETURNDATACOPY PUSH2 0x2E9 JUMP JUMPDEST PUSH1 0x60 SWAP2 POP JUMPDEST POP POP SWAP1 POP DUP1 PUSH2 0x32D JUMPI PUSH1 0x40 MLOAD PUSH32 0x8C379A000000000000000000000000000000000000000000000000000000000 DUP2 MSTORE PUSH1 0x4 ADD PUSH2 0x324 SWAP1 PUSH2 0x7F7 JUMP JUMPDEST PUSH1 0x40 MLOAD DUP1 SWAP2 SUB SWAP1 REVERT JUMPDEST POP POP DUP1 DUP1 PUSH1 0x1 ADD SWAP2 POP POP PUSH2 0x1FC JUMP JUMPDEST POP PUSH1 0x2 PUSH0 PUSH2 0x34A SWAP2 SWAP1 PUSH2 0x53C JUMP JUMPDEST POP JUMP JUMPDEST PUSH1 0x1 PUSH0 SWAP1 SLOAD SWAP1 PUSH2 0x100 EXP SWAP1 DIV PUSH20 0xFFFFFFFFFFFFFFFFFFFFFFFFFFFFFFFFFFFFFFFF AND DUP2 JUMP JUMPDEST PUSH0 SLOAD CALLVALUE LT ISZERO PUSH2 0x3B6 JUMPI PUSH1 0x40 MLOAD PUSH32 0x8C379A000000000000000000000000000000000000000000000000000000000 DUP2 MSTORE PUSH1 0x4 ADD PUSH2 0x3AD SWAP1 PUSH2 0x85F JUMP JUMPDEST PUSH1 0x40 MLOAD DUP1 SWAP2 SUB SWAP1 REVERT JUMPDEST PUSH0 SLOAD CALLVALUE LT ISZERO PUSH2 0x3FA JUMPI PUSH1 0x40 MLOAD PUSH32 0x8C379A000000000000000000000000000000000000000000000000000000000 DUP2 MSTORE PUSH1 0x4 ADD PUSH2 0x3F1 SWAP1 PUSH2 0x8C7 JUMP JUMPDEST PUSH1 0x40 MLOAD DUP1 SWAP2 SUB SWAP1 REVERT JUMPDEST PUSH1 0x2 CALLER SWAP1 DUP1 PUSH1 0x1 DUP2 SLOAD ADD DUP1 DUP3 SSTORE DUP1 SWAP2 POP POP PUSH1 0x1 SWAP1 SUB SWAP1 PUSH0 MSTORE PUSH1 0x20 PUSH0 KECCAK256 ADD PUSH0 SWAP1 SWAP2 SWAP1 SWAP2 SWAP1 SWAP2 PUSH2 0x100 EXP DUP2 SLOAD DUP2 PUSH20 0xFFFFFFFFFFFFFFFFFFFFFFFFFFFFFFFFFFFFFFFF MUL NOT AND SWAP1 DUP4 PUSH20 0xFFFFFFFFFFFFFFFFFFFFFFFFFFFFFFFFFFFFFFFF AND MUL OR SWAP1 SSTORE POP CALLVALUE PUSH1 0x3 PUSH0 CALLER PUSH20 0xFFFFFFFFFFFFFFFFFFFFFFFFFFFFFFFFFFFFFFFF AND PUSH20 0xFFFFFFFFFFFFFFFFFFFFFFFFFFFFFFFFFFFFFFFF AND DUP2 MSTORE PUSH1 0x20 ADD SWAP1 DUP2 MSTORE PUSH1 0x20 ADD PUSH0 KECCAK256 PUSH0 DUP3 DUP3 SLOAD PUSH2 0x4A6 SWAP2 SWAP1 PUSH2 0x912 JUMP JUMPDEST SWAP3 POP POP DUP2 SWAP1 SSTORE POP JUMP JUMPDEST PUSH0 PUSH1 0x1 PUSH0 SWAP1 SLOAD SWAP1 PUSH2 0x100 EXP SWAP1 DIV PUSH20 0xFFFFFFFFFFFFFFFFFFFFFFFFFFFFFFFFFFFFFFFF AND TIMESTAMP PUSH1 0x40 MLOAD PUSH1 0x20 ADD PUSH2 0x4E4 SWAP3 SWAP2 SWAP1 PUSH2 0x9AA JUMP JUMPDEST PUSH1 0x40 MLOAD PUSH1 0x20 DUP2 DUP4 SUB SUB DUP2 MSTORE SWAP1 PUSH1 0x40 MSTORE DUP1 MLOAD SWAP1 PUSH1 0x20 ADD KECCAK256 PUSH0 SHR SWAP1 POP SWAP1 JUMP JUMPDEST PUSH1 0x2 DUP2 DUP2 SLOAD DUP2 LT PUSH2 0x510 JUMPI PUSH0 DUP1 REVERT JUMPDEST SWAP1 PUSH0 MSTORE PUSH1 0x20 PUSH0 KECCAK256 ADD PUSH0 SWAP2 POP SLOAD SWAP1 PUSH2 0x100 EXP SWAP1 DIV PUSH20 0xFFFFFFFFFFFFFFFFFFFFFFFFFFFFFFFFFFFFFFFF AND DUP2 JUMP JUMPDEST POP DUP1 SLOAD PUSH0 DUP3 SSTORE SWAP1 PUSH0 MSTORE PUSH1 0x20 PUSH0 KECCAK256 SWAP1 DUP2 ADD SWAP1 PUSH2 0x557 SWAP2 SWAP1 PUSH2 0x55A JUMP JUMPDEST POP JUMP JUMPDEST JUMPDEST DUP1 DUP3 GT ISZERO PUSH2 0x571 JUMPI PUSH0 DUP2 PUSH0 SWAP1 SSTORE POP PUSH1 0x1 ADD PUSH2 0x55B JUMP JUMPDEST POP SWAP1 JUMP JUMPDEST PUSH0 DUP2 SWAP1 POP SWAP2 SWAP1 POP JUMP JUMPDEST PUSH2 0x587 DUP2 PUSH2 0x575 JUMP JUMPDEST DUP3 MSTORE POP POP JUMP JUMPDEST PUSH0 PUSH1 0x20 DUP3 ADD SWAP1 POP PUSH2 0x5A0 PUSH0 DUP4 ADD DUP5 PUSH2 0x57E JUMP JUMPDEST SWAP3 SWAP2 POP POP JUMP JUMPDEST PUSH0 DUP1 REVERT JUMPDEST PUSH0 PUSH20 0xFFFFFFFFFFFFFFFFFFFFFFFFFFFFFFFFFFFFFFFF DUP3 AND SWAP1 POP SWAP2 SWAP1 POP JUMP JUMPDEST PUSH0 PUSH2 0x5D3 DUP3 PUSH2 0x5AA JUMP JUMPDEST SWAP1 POP SWAP2 SWAP1 POP JUMP JUMPDEST PUSH2 0x5E3 DUP2 PUSH2 0x5C9 JUMP JUMPDEST DUP2 EQ PUSH2 0x5ED JUMPI PUSH0 DUP1 REVERT JUMPDEST POP JUMP JUMPDEST PUSH0 DUP2 CALLDATALOAD SWAP1 POP PUSH2 0x5FE DUP2 PUSH2 0x5DA JUMP JUMPDEST SWAP3 SWAP2 POP POP JUMP JUMPDEST PUSH0 PUSH1 0x20 DUP3 DUP5 SUB SLT ISZERO PUSH2 0x619 JUMPI PUSH2 0x618 PUSH2 0x5A6 JUMP JUMPDEST JUMPDEST PUSH0 PUSH2 0x626 DUP5 DUP3 DUP6 ADD PUSH2 0x5F0 JUMP JUMPDEST SWAP2 POP POP SWAP3 SWAP2 POP POP JUMP JUMPDEST PUSH2 0x638 DUP2 PUSH2 0x5C9 JUMP JUMPDEST DUP3 MSTORE POP POP JUMP JUMPDEST PUSH0 PUSH1 0x20 DUP3 ADD SWAP1 POP PUSH2 0x651 PUSH0 DUP4 ADD DUP5 PUSH2 0x62F JUMP JUMPDEST SWAP3 SWAP2 POP POP JUMP JUMPDEST PUSH2 0x660 DUP2 PUSH2 0x575 JUMP JUMPDEST DUP2 EQ PUSH2 0x66A JUMPI PUSH0 DUP1 REVERT JUMPDEST POP JUMP JUMPDEST PUSH0 DUP2 CALLDATALOAD SWAP1 POP PUSH2 0x67B DUP2 PUSH2 0x657 JUMP JUMPDEST SWAP3 SWAP2 POP POP JUMP JUMPDEST PUSH0 PUSH1 0x20 DUP3 DUP5 SUB SLT ISZERO PUSH2 0x696 JUMPI PUSH2 0x695 PUSH2 0x5A6 JUMP JUMPDEST JUMPDEST PUSH0 PUSH2 0x6A3 DUP5 DUP3 DUP6 ADD PUSH2 0x66D JUMP JUMPDEST SWAP2 POP POP SWAP3 SWAP2 POP POP JUMP JUMPDEST PUSH32 0x4E487B7100000000000000000000000000000000000000000000000000000000 PUSH0 MSTORE PUSH1 0x12 PUSH1 0x4 MSTORE PUSH1 0x24 PUSH0 REVERT JUMPDEST PUSH0 PUSH2 0x6E3 DUP3 PUSH2 0x575 JUMP JUMPDEST SWAP2 POP PUSH2 0x6EE DUP4 PUSH2 0x575 JUMP JUMPDEST SWAP3 POP DUP3 PUSH2 0x6FE JUMPI PUSH2 0x6FD PUSH2 0x6AC JUMP JUMPDEST JUMPDEST DUP3 DUP3 MOD SWAP1 POP SWAP3 SWAP2 POP POP JUMP JUMPDEST PUSH32 0x4E487B7100000000000000000000000000000000000000000000000000000000 PUSH0 MSTORE PUSH1 0x32 PUSH1 0x4 MSTORE PUSH1 0x24 PUSH0 REVERT JUMPDEST PUSH0 DUP2 SWAP1 POP SWAP3 SWAP2 POP POP JUMP JUMPDEST POP JUMP JUMPDEST PUSH0 PUSH2 0x74E PUSH0 DUP4 PUSH2 0x736 JUMP JUMPDEST SWAP2 POP PUSH2 0x759 DUP3 PUSH2 0x740 JUMP JUMPDEST PUSH0 DUP3 ADD SWAP1 POP SWAP2 SWAP1 POP JUMP JUMPDEST PUSH0 PUSH2 0x76D DUP3 PUSH2 0x743 JUMP JUMPDEST SWAP2 POP DUP2 SWAP1 POP SWAP2 SWAP1 POP JUMP JUMPDEST PUSH0 DUP3 DUP3 MSTORE PUSH1 0x20 DUP3 ADD SWAP1 POP SWAP3 SWAP2 POP POP JUMP JUMPDEST PUSH32 0x7061676F2066616C6C69646F2C20706F72206661766F72207265696E74656E74 PUSH0 DUP3 ADD MSTORE PUSH32 0x6172000000000000000000000000000000000000000000000000000000000000 PUSH1 0x20 DUP3 ADD MSTORE POP JUMP JUMPDEST PUSH0 PUSH2 0x7E1 PUSH1 0x22 DUP4 PUSH2 0x777 JUMP JUMPDEST SWAP2 POP PUSH2 0x7EC DUP3 PUSH2 0x787 JUMP JUMPDEST PUSH1 0x40 DUP3 ADD SWAP1 POP SWAP2 SWAP1 POP JUMP JUMPDEST PUSH0 PUSH1 0x20 DUP3 ADD SWAP1 POP DUP2 DUP2 SUB PUSH0 DUP4 ADD MSTORE PUSH2 0x80E DUP2 PUSH2 0x7D5 JUMP JUMPDEST SWAP1 POP SWAP2 SWAP1 POP JUMP JUMPDEST PUSH32 0x506F72206661766F72207061677565206D617300000000000000000000000000 PUSH0 DUP3 ADD MSTORE POP JUMP JUMPDEST PUSH0 PUSH2 0x849 PUSH1 0x13 DUP4 PUSH2 0x777 JUMP JUMPDEST SWAP2 POP PUSH2 0x854 DUP3 PUSH2 0x815 JUMP JUMPDEST PUSH1 0x20 DUP3 ADD SWAP1 POP SWAP2 SWAP1 POP JUMP JUMPDEST PUSH0 PUSH1 0x20 DUP3 ADD SWAP1 POP DUP2 DUP2 SUB PUSH0 DUP4 ADD MSTORE PUSH2 0x876 DUP2 PUSH2 0x83D JUMP JUMPDEST SWAP1 POP SWAP2 SWAP1 POP JUMP JUMPDEST PUSH32 0x706F72206661766F7220706167617220656C206D696E696D6F00000000000000 PUSH0 DUP3 ADD MSTORE POP JUMP JUMPDEST PUSH0 PUSH2 0x8B1 PUSH1 0x19 DUP4 PUSH2 0x777 JUMP JUMPDEST SWAP2 POP PUSH2 0x8BC DUP3 PUSH2 0x87D JUMP JUMPDEST PUSH1 0x20 DUP3 ADD SWAP1 POP SWAP2 SWAP1 POP JUMP JUMPDEST PUSH0 PUSH1 0x20 DUP3 ADD SWAP1 POP DUP2 DUP2 SUB PUSH0 DUP4 ADD MSTORE PUSH2 0x8DE DUP2 PUSH2 0x8A5 JUMP JUMPDEST SWAP1 POP SWAP2 SWAP1 POP JUMP JUMPDEST PUSH32 0x4E487B7100000000000000000000000000000000000000000000000000000000 PUSH0 MSTORE PUSH1 0x11 PUSH1 0x4 MSTORE PUSH1 0x24 PUSH0 REVERT JUMPDEST PUSH0 PUSH2 0x91C DUP3 PUSH2 0x575 JUMP JUMPDEST SWAP2 POP PUSH2 0x927 DUP4 PUSH2 0x575 JUMP JUMPDEST SWAP3 POP DUP3 DUP3 ADD SWAP1 POP DUP1 DUP3 GT ISZERO PUSH2 0x93F JUMPI PUSH2 0x93E PUSH2 0x8E5 JUMP JUMPDEST JUMPDEST SWAP3 SWAP2 POP POP JUMP JUMPDEST PUSH0 DUP2 PUSH1 0x60 SHL SWAP1 POP SWAP2 SWAP1 POP JUMP JUMPDEST PUSH0 PUSH2 0x95B DUP3 PUSH2 0x945 JUMP JUMPDEST SWAP1 POP SWAP2 SWAP1 POP JUMP JUMPDEST PUSH0 PUSH2 0x96C DUP3 PUSH2 0x951 JUMP JUMPDEST SWAP1 POP SWAP2 SWAP1 POP JUMP JUMPDEST PUSH2 0x984 PUSH2 0x97F DUP3 PUSH2 0x5C9 JUMP JUMPDEST PUSH2 0x962 JUMP JUMPDEST DUP3 MSTORE POP POP JUMP JUMPDEST PUSH0 DUP2 SWAP1 POP SWAP2 SWAP1 POP JUMP JUMPDEST PUSH2 0x9A4 PUSH2 0x99F DUP3 PUSH2 0x575 JUMP JUMPDEST PUSH2 0x98A JUMP JUMPDEST DUP3 MSTORE POP POP JUMP JUMPDEST PUSH0 PUSH2 0x9B5 DUP3 DUP6 PUSH2 0x973 JUMP JUMPDEST PUSH1 0x14 DUP3 ADD SWAP2 POP PUSH2 0x9C5 DUP3 DUP5 PUSH2 0x993 JUMP JUMPDEST PUSH1 0x20 DUP3 ADD SWAP2 POP DUP2 SWAP1 POP SWAP4 SWAP3 POP POP POP JUMP INVALID LOG2 PUSH5 0x6970667358 0x22 SLT KECCAK256 SWAP7 SWAP4 JUMP SWAP2 0xAE SWAP10 SWAP14 SHL 0xB3 DUP16 RETURNDATACOPY DUP3 0xEA 0xEB DUP14 GT RETURNDATASIZE PUSH31 0x448E4E3C537C0D6D815B54615E6F64736F6C634300081A0033000000000000 "
				},
				"gasEstimates": {
					"creation": {
						"codeDepositCost": "514200",
						"executionCost": "infinite",
						"totalCost": "infinite"
					},
					"external": {
						"getBalance()": "335",
						"getRandomNumber()": "infinite",
						"minFee()": "2447",
						"owner()": "2508",
						"pickWinner()": "infinite",
						"play()": "infinite",
						"playerBalance(address)": "2847",
						"players(uint256)": "5010"
					}
				},
				"methodIdentifiers": {
					"getBalance()": "12065fe0",
					"getRandomNumber()": "dbdff2c1",
					"minFee()": "24ec7590",
					"owner()": "8da5cb5b",
					"pickWinner()": "5d495aea",
					"play()": "93e84cd9",
					"playerBalance(address)": "4e33f83b",
					"players(uint256)": "f71d96cb"
				}
			},
			"storageLayout": {
				"storage": [
					{
						"astId": 3,
						"contract": "loto.sol:Lottery",
						"label": "minFee",
						"offset": 0,
						"slot": "0",
						"type": "t_uint256"
					},
					{
						"astId": 5,
						"contract": "loto.sol:Lottery",
						"label": "owner",
						"offset": 0,
						"slot": "1",
						"type": "t_address"
					},
					{
						"astId": 8,
						"contract": "loto.sol:Lottery",
						"label": "players",
						"offset": 0,
						"slot": "2",
						"type": "t_array(t_address)dyn_storage"
					},
					{
						"astId": 12,
						"contract": "loto.sol:Lottery",
						"label": "playerBalance",
						"offset": 0,
						"slot": "3",
						"type": "t_mapping(t_address,t_uint256)"
					}
				],
				"types": {
					"t_address": {
						"encoding": "inplace",
						"label": "address",
						"numberOfBytes": "20"
					},
					"t_array(t_address)dyn_storage": {
						"base": "t_address",
						"encoding": "dynamic_array",
						"label": "address[]",
						"numberOfBytes": "32"
					},
					"t_mapping(t_address,t_uint256)": {
						"encoding": "mapping",
						"key": "t_address",
						"label": "mapping(address => uint256)",
						"numberOfBytes": "32",
						"value": "t_uint256"
					},
					"t_uint256": {
						"encoding": "inplace",
						"label": "uint256",
						"numberOfBytes": "32"
					}
				}
			},
			"userdoc": {
				"kind": "user",
				"methods": {},
				"version": 1
			}
		}
	}
}